{
  "_format": "hh-sol-artifact-1",
  "contractName": "AcademicNFT",
  "sourceName": "contracts/AcademicNFT.sol",
  "abi": [
    {
      "inputs": [
        {
          "internalType": "address",
          "name": "defaultAdmin",
          "type": "address"
        },
        {
          "internalType": "address",
          "name": "minter",
          "type": "address"
        },
        {
          "internalType": "address",
          "name": "treasury",
          "type": "address"
        }
      ],
      "stateMutability": "nonpayable",
      "type": "constructor"
    },
    {
      "inputs": [],
      "name": "AccessControlBadConfirmation",
      "type": "error"
    },
    {
      "inputs": [
        {
          "internalType": "address",
          "name": "account",
          "type": "address"
        },
        {
          "internalType": "bytes32",
          "name": "neededRole",
          "type": "bytes32"
        }
      ],
      "name": "AccessControlUnauthorizedAccount",
      "type": "error"
    },
    {
      "inputs": [
        {
          "internalType": "address",
          "name": "sender",
          "type": "address"
        },
        {
          "internalType": "uint256",
          "name": "tokenId",
          "type": "uint256"
        },
        {
          "internalType": "address",
          "name": "owner",
          "type": "address"
        }
      ],
      "name": "ERC721IncorrectOwner",
      "type": "error"
    },
    {
      "inputs": [
        {
          "internalType": "address",
          "name": "operator",
          "type": "address"
        },
        {
          "internalType": "uint256",
          "name": "tokenId",
          "type": "uint256"
        }
      ],
      "name": "ERC721InsufficientApproval",
      "type": "error"
    },
    {
      "inputs": [
        {
          "internalType": "address",
          "name": "approver",
          "type": "address"
        }
      ],
      "name": "ERC721InvalidApprover",
      "type": "error"
    },
    {
      "inputs": [
        {
          "internalType": "address",
          "name": "operator",
          "type": "address"
        }
      ],
      "name": "ERC721InvalidOperator",
      "type": "error"
    },
    {
      "inputs": [
        {
          "internalType": "address",
          "name": "owner",
          "type": "address"
        }
      ],
      "name": "ERC721InvalidOwner",
      "type": "error"
    },
    {
      "inputs": [
        {
          "internalType": "address",
          "name": "receiver",
          "type": "address"
        }
      ],
      "name": "ERC721InvalidReceiver",
      "type": "error"
    },
    {
      "inputs": [
        {
          "internalType": "address",
          "name": "sender",
          "type": "address"
        }
      ],
      "name": "ERC721InvalidSender",
      "type": "error"
    },
    {
      "inputs": [
        {
          "internalType": "uint256",
          "name": "tokenId",
          "type": "uint256"
        }
      ],
      "name": "ERC721NonexistentToken",
      "type": "error"
    },
    {
      "anonymous": false,
      "inputs": [
        {
          "indexed": true,
          "internalType": "address",
          "name": "owner",
          "type": "address"
        },
        {
          "indexed": true,
          "internalType": "address",
          "name": "approved",
          "type": "address"
        },
        {
          "indexed": true,
          "internalType": "uint256",
          "name": "tokenId",
          "type": "uint256"
        }
      ],
      "name": "Approval",
      "type": "event"
    },
    {
      "anonymous": false,
      "inputs": [
        {
          "indexed": true,
          "internalType": "address",
          "name": "owner",
          "type": "address"
        },
        {
          "indexed": true,
          "internalType": "address",
          "name": "operator",
          "type": "address"
        },
        {
          "indexed": false,
          "internalType": "bool",
          "name": "approved",
          "type": "bool"
        }
      ],
      "name": "ApprovalForAll",
      "type": "event"
    },
    {
      "anonymous": false,
      "inputs": [
        {
          "indexed": false,
          "internalType": "uint256",
          "name": "_fromTokenId",
          "type": "uint256"
        },
        {
          "indexed": false,
          "internalType": "uint256",
          "name": "_toTokenId",
          "type": "uint256"
        }
      ],
      "name": "BatchMetadataUpdate",
      "type": "event"
    },
    {
      "anonymous": false,
      "inputs": [
        {
          "indexed": false,
          "internalType": "uint256",
          "name": "_tokenId",
          "type": "uint256"
        }
      ],
      "name": "MetadataUpdate",
      "type": "event"
    },
    {
      "anonymous": false,
      "inputs": [
        {
          "indexed": true,
          "internalType": "bytes32",
          "name": "role",
          "type": "bytes32"
        },
        {
          "indexed": true,
          "internalType": "bytes32",
          "name": "previousAdminRole",
          "type": "bytes32"
        },
        {
          "indexed": true,
          "internalType": "bytes32",
          "name": "newAdminRole",
          "type": "bytes32"
        }
      ],
      "name": "RoleAdminChanged",
      "type": "event"
    },
    {
      "anonymous": false,
      "inputs": [
        {
          "indexed": true,
          "internalType": "bytes32",
          "name": "role",
          "type": "bytes32"
        },
        {
          "indexed": true,
          "internalType": "address",
          "name": "account",
          "type": "address"
        },
        {
          "indexed": true,
          "internalType": "address",
          "name": "sender",
          "type": "address"
        }
      ],
      "name": "RoleGranted",
      "type": "event"
    },
    {
      "anonymous": false,
      "inputs": [
        {
          "indexed": true,
          "internalType": "bytes32",
          "name": "role",
          "type": "bytes32"
        },
        {
          "indexed": true,
          "internalType": "address",
          "name": "account",
          "type": "address"
        },
        {
          "indexed": true,
          "internalType": "address",
          "name": "sender",
          "type": "address"
        }
      ],
      "name": "RoleRevoked",
      "type": "event"
    },
    {
      "anonymous": false,
      "inputs": [
        {
          "indexed": true,
          "internalType": "address",
          "name": "from",
          "type": "address"
        },
        {
          "indexed": true,
          "internalType": "address",
          "name": "to",
          "type": "address"
        },
        {
          "indexed": true,
          "internalType": "uint256",
          "name": "tokenId",
          "type": "uint256"
        }
      ],
      "name": "Transfer",
      "type": "event"
    },
    {
      "inputs": [],
      "name": "DEFAULT_ADMIN_ROLE",
      "outputs": [
        {
          "internalType": "bytes32",
          "name": "",
          "type": "bytes32"
        }
      ],
      "stateMutability": "view",
      "type": "function"
    },
    {
      "inputs": [],
      "name": "MINTER_ROLE",
      "outputs": [
        {
          "internalType": "bytes32",
          "name": "",
          "type": "bytes32"
        }
      ],
      "stateMutability": "view",
      "type": "function"
    },
    {
      "inputs": [],
      "name": "TRANSFER_ROLE",
      "outputs": [
        {
          "internalType": "bytes32",
          "name": "",
          "type": "bytes32"
        }
      ],
      "stateMutability": "view",
      "type": "function"
    },
    {
      "inputs": [
        {
          "internalType": "address",
          "name": "to",
          "type": "address"
        },
        {
          "internalType": "uint256",
          "name": "tokenId",
          "type": "uint256"
        }
      ],
      "name": "approve",
      "outputs": [],
      "stateMutability": "nonpayable",
      "type": "function"
    },
    {
      "inputs": [
        {
          "internalType": "address",
          "name": "owner",
          "type": "address"
        }
      ],
      "name": "balanceOf",
      "outputs": [
        {
          "internalType": "uint256",
          "name": "",
          "type": "uint256"
        }
      ],
      "stateMutability": "view",
      "type": "function"
    },
    {
      "inputs": [
        {
          "internalType": "uint256",
          "name": "tokenId",
          "type": "uint256"
        }
      ],
      "name": "getApproved",
      "outputs": [
        {
          "internalType": "address",
          "name": "",
          "type": "address"
        }
      ],
      "stateMutability": "view",
      "type": "function"
    },
    {
      "inputs": [
        {
          "internalType": "bytes32",
          "name": "role",
          "type": "bytes32"
        }
      ],
      "name": "getRoleAdmin",
      "outputs": [
        {
          "internalType": "bytes32",
          "name": "",
          "type": "bytes32"
        }
      ],
      "stateMutability": "view",
      "type": "function"
    },
    {
      "inputs": [
        {
          "internalType": "bytes32",
          "name": "role",
          "type": "bytes32"
        },
        {
          "internalType": "address",
          "name": "account",
          "type": "address"
        }
      ],
      "name": "grantRole",
      "outputs": [],
      "stateMutability": "nonpayable",
      "type": "function"
    },
    {
      "inputs": [
        {
          "internalType": "bytes32",
          "name": "role",
          "type": "bytes32"
        },
        {
          "internalType": "address",
          "name": "account",
          "type": "address"
        }
      ],
      "name": "hasRole",
      "outputs": [
        {
          "internalType": "bool",
          "name": "",
          "type": "bool"
        }
      ],
      "stateMutability": "view",
      "type": "function"
    },
    {
      "inputs": [
        {
          "internalType": "address",
          "name": "owner",
          "type": "address"
        },
        {
          "internalType": "address",
          "name": "operator",
          "type": "address"
        }
      ],
      "name": "isApprovedForAll",
      "outputs": [
        {
          "internalType": "bool",
          "name": "",
          "type": "bool"
        }
      ],
      "stateMutability": "view",
      "type": "function"
    },
    {
      "inputs": [],
      "name": "name",
      "outputs": [
        {
          "internalType": "string",
          "name": "",
          "type": "string"
        }
      ],
      "stateMutability": "view",
      "type": "function"
    },
    {
      "inputs": [
        {
          "internalType": "uint256",
          "name": "tokenId",
          "type": "uint256"
        }
      ],
      "name": "ownerOf",
      "outputs": [
        {
          "internalType": "address",
          "name": "",
          "type": "address"
        }
      ],
      "stateMutability": "view",
      "type": "function"
    },
    {
      "inputs": [
        {
          "internalType": "bytes32",
          "name": "role",
          "type": "bytes32"
        },
        {
          "internalType": "address",
          "name": "callerConfirmation",
          "type": "address"
        }
      ],
      "name": "renounceRole",
      "outputs": [],
      "stateMutability": "nonpayable",
      "type": "function"
    },
    {
      "inputs": [
        {
          "internalType": "bytes32",
          "name": "role",
          "type": "bytes32"
        },
        {
          "internalType": "address",
          "name": "account",
          "type": "address"
        }
      ],
      "name": "revokeRole",
      "outputs": [],
      "stateMutability": "nonpayable",
      "type": "function"
    },
    {
      "inputs": [
        {
          "internalType": "address",
          "name": "to",
          "type": "address"
        },
        {
          "internalType": "string",
          "name": "uri",
          "type": "string"
        }
      ],
      "name": "safeMint",
      "outputs": [],
      "stateMutability": "nonpayable",
      "type": "function"
    },
    {
      "inputs": [
        {
          "internalType": "address",
          "name": "from",
          "type": "address"
        },
        {
          "internalType": "address",
          "name": "to",
          "type": "address"
        },
        {
          "internalType": "uint256",
          "name": "tokenId",
          "type": "uint256"
        }
      ],
      "name": "safeTransferFrom",
      "outputs": [],
      "stateMutability": "nonpayable",
      "type": "function"
    },
    {
      "inputs": [
        {
          "internalType": "address",
          "name": "from",
          "type": "address"
        },
        {
          "internalType": "address",
          "name": "to",
          "type": "address"
        },
        {
          "internalType": "uint256",
          "name": "tokenId",
          "type": "uint256"
        },
        {
          "internalType": "bytes",
          "name": "data",
          "type": "bytes"
        }
      ],
      "name": "safeTransferFrom",
      "outputs": [],
      "stateMutability": "nonpayable",
      "type": "function"
    },
    {
      "inputs": [
        {
          "internalType": "address",
          "name": "operator",
          "type": "address"
        },
        {
          "internalType": "bool",
          "name": "approved",
          "type": "bool"
        }
      ],
      "name": "setApprovalForAll",
      "outputs": [],
      "stateMutability": "nonpayable",
      "type": "function"
    },
    {
      "inputs": [
        {
          "internalType": "bytes4",
          "name": "interfaceId",
          "type": "bytes4"
        }
      ],
      "name": "supportsInterface",
      "outputs": [
        {
          "internalType": "bool",
          "name": "",
          "type": "bool"
        }
      ],
      "stateMutability": "view",
      "type": "function"
    },
    {
      "inputs": [],
      "name": "symbol",
      "outputs": [
        {
          "internalType": "string",
          "name": "",
          "type": "string"
        }
      ],
      "stateMutability": "view",
      "type": "function"
    },
    {
      "inputs": [
        {
          "internalType": "uint256",
          "name": "tokenId",
          "type": "uint256"
        }
      ],
      "name": "tokenURI",
      "outputs": [
        {
          "internalType": "string",
          "name": "",
          "type": "string"
        }
      ],
      "stateMutability": "view",
      "type": "function"
    },
    {
      "inputs": [
        {
          "internalType": "address",
          "name": "from",
          "type": "address"
        },
        {
          "internalType": "address",
          "name": "to",
          "type": "address"
        },
        {
          "internalType": "uint256",
          "name": "tokenId",
          "type": "uint256"
        }
      ],
      "name": "transferFrom",
      "outputs": [],
      "stateMutability": "nonpayable",
      "type": "function"
    }
  ],
  "bytecode": "0x60806040523480156200001157600080fd5b50604051620033b2380380620033b283398181016040528101906200003791906200032f565b6040518060400160405280601281526020017f41636164656d696343726564656e7469616c00000000000000000000000000008152506040518060400160405280600381526020017f41434400000000000000000000000000000000000000000000000000000000008152508160009081620000b4919062000605565b508060019081620000c6919062000605565b505050620000de6000801b846200014e60201b60201c565b50620001117f9f2df0fed2c77648de5860a4cc508cd0818c85b8b8a1ab4ceeef8d981c8956a6836200014e60201b60201c565b50620001447f8502233096d909befbda0999bb8ea2f3a6be3c138b9fbf003752a4c8bce86f6c826200014e60201b60201c565b50505050620006ec565b60006200016283836200025260201b60201c565b620002475760016007600085815260200190815260200160002060000160008473ffffffffffffffffffffffffffffffffffffffff1673ffffffffffffffffffffffffffffffffffffffff16815260200190815260200160002060006101000a81548160ff021916908315150217905550620001e3620002bd60201b60201c565b73ffffffffffffffffffffffffffffffffffffffff168273ffffffffffffffffffffffffffffffffffffffff16847f2f8788117e7eff1d82e926ec794901d17c78024a50270940304540a733656f0d60405160405180910390a4600190506200024c565b600090505b92915050565b60006007600084815260200190815260200160002060000160008373ffffffffffffffffffffffffffffffffffffffff1673ffffffffffffffffffffffffffffffffffffffff16815260200190815260200160002060009054906101000a900460ff16905092915050565b600033905090565b600080fd5b600073ffffffffffffffffffffffffffffffffffffffff82169050919050565b6000620002f782620002ca565b9050919050565b6200030981620002ea565b81146200031557600080fd5b50565b6000815190506200032981620002fe565b92915050565b6000806000606084860312156200034b576200034a620002c5565b5b60006200035b8682870162000318565b93505060206200036e8682870162000318565b9250506040620003818682870162000318565b9150509250925092565b600081519050919050565b7f4e487b7100000000000000000000000000000000000000000000000000000000600052604160045260246000fd5b7f4e487b7100000000000000000000000000000000000000000000000000000000600052602260045260246000fd5b600060028204905060018216806200040d57607f821691505b602082108103620004235762000422620003c5565b5b50919050565b60008190508160005260206000209050919050565b60006020601f8301049050919050565b600082821b905092915050565b6000600883026200048d7fffffffffffffffffffffffffffffffffffffffffffffffffffffffffffffffff826200044e565b6200049986836200044e565b95508019841693508086168417925050509392505050565b6000819050919050565b6000819050919050565b6000620004e6620004e0620004da84620004b1565b620004bb565b620004b1565b9050919050565b6000819050919050565b6200050283620004c5565b6200051a6200051182620004ed565b8484546200045b565b825550505050565b600090565b6200053162000522565b6200053e818484620004f7565b505050565b5b8181101562000566576200055a60008262000527565b60018101905062000544565b5050565b601f821115620005b5576200057f8162000429565b6200058a846200043e565b810160208510156200059a578190505b620005b2620005a9856200043e565b83018262000543565b50505b505050565b600082821c905092915050565b6000620005da60001984600802620005ba565b1980831691505092915050565b6000620005f58383620005c7565b9150826002028217905092915050565b62000610826200038b565b67ffffffffffffffff8111156200062c576200062b62000396565b5b620006388254620003f4565b620006458282856200056a565b600060209050601f8311600181146200067d576000841562000668578287015190505b620006748582620005e7565b865550620006e4565b601f1984166200068d8662000429565b60005b82811015620006b75784890151825560018201915060208501945060208101905062000690565b86831015620006d75784890151620006d3601f891682620005c7565b8355505b6001600288020188555050505b505050505050565b612cb680620006fc6000396000f3fe608060405234801561001057600080fd5b50600436106101425760003560e01c806370a08231116100b8578063b88d4fde1161007c578063b88d4fde14610387578063c87b56dd146103a3578063d204c45e146103d3578063d5391393146103ef578063d547741f1461040d578063e985e9c51461042957610142565b806370a08231146102cf57806391d14854146102ff57806395d89b411461032f578063a217fddf1461034d578063a22cb4651461036b57610142565b806323b872dd1161010a57806323b872dd146101ff578063248a9ca31461021b5780632f2ff15d1461024b57806336568abe1461026757806342842e0e146102835780636352211e1461029f57610142565b806301ffc9a71461014757806306fdde0314610177578063081812fc14610195578063095ea7b3146101c5578063206b60f9146101e1575b600080fd5b610161600480360381019061015c9190611f60565b610459565b60405161016e9190611fa8565b60405180910390f35b61017f61046b565b60405161018c9190612053565b60405180910390f35b6101af60048036038101906101aa91906120ab565b6104fd565b6040516101bc9190612119565b60405180910390f35b6101df60048036038101906101da9190612160565b610519565b005b6101e961052f565b6040516101f691906121b9565b60405180910390f35b610219600480360381019061021491906121d4565b610553565b005b61023560048036038101906102309190612253565b610655565b60405161024291906121b9565b60405180910390f35b61026560048036038101906102609190612280565b610675565b005b610281600480360381019061027c9190612280565b610697565b005b61029d600480360381019061029891906121d4565b610712565b005b6102b960048036038101906102b491906120ab565b610732565b6040516102c69190612119565b60405180910390f35b6102e960048036038101906102e491906122c0565b610744565b6040516102f691906122fc565b60405180910390f35b61031960048036038101906103149190612280565b6107fe565b6040516103269190611fa8565b60405180910390f35b610337610869565b6040516103449190612053565b60405180910390f35b6103556108fb565b60405161036291906121b9565b60405180910390f35b61038560048036038101906103809190612343565b610902565b005b6103a1600480360381019061039c91906124b8565b610918565b005b6103bd60048036038101906103b891906120ab565b61093d565b6040516103ca9190612053565b60405180910390f35b6103ed60048036038101906103e891906125dc565b61094f565b005b6103f76109ae565b60405161040491906121b9565b60405180910390f35b61042760048036038101906104229190612280565b6109d2565b005b610443600480360381019061043e9190612638565b6109f4565b6040516104509190611fa8565b60405180910390f35b600061046482610a88565b9050919050565b60606000805461047a906126a7565b80601f01602080910402602001604051908101604052809291908181526020018280546104a6906126a7565b80156104f35780601f106104c8576101008083540402835291602001916104f3565b820191906000526020600020905b8154815290600101906020018083116104d657829003601f168201915b5050505050905090565b600061050882610b02565b5061051282610b8a565b9050919050565b61052b8282610526610bc7565b610bcf565b5050565b7f8502233096d909befbda0999bb8ea2f3a6be3c138b9fbf003752a4c8bce86f6c81565b600073ffffffffffffffffffffffffffffffffffffffff168273ffffffffffffffffffffffffffffffffffffffff16036105c55760006040517f64a0ae920000000000000000000000000000000000000000000000000000000081526004016105bc9190612119565b60405180910390fd5b60006105d983836105d4610bc7565b610be1565b90508373ffffffffffffffffffffffffffffffffffffffff168173ffffffffffffffffffffffffffffffffffffffff161461064f578382826040517f64283d7b000000000000000000000000000000000000000000000000000000008152600401610646939291906126d8565b60405180910390fd5b50505050565b600060076000838152602001908152602001600020600101549050919050565b61067e82610655565b61068781610cf1565b6106918383610d05565b50505050565b61069f610bc7565b73ffffffffffffffffffffffffffffffffffffffff168173ffffffffffffffffffffffffffffffffffffffff1614610703576040517f6697b23200000000000000000000000000000000000000000000000000000000815260040160405180910390fd5b61070d8282610df7565b505050565b61072d83838360405180602001604052806000815250610918565b505050565b600061073d82610b02565b9050919050565b60008073ffffffffffffffffffffffffffffffffffffffff168273ffffffffffffffffffffffffffffffffffffffff16036107b75760006040517f89c62b640000000000000000000000000000000000000000000000000000000081526004016107ae9190612119565b60405180910390fd5b600360008373ffffffffffffffffffffffffffffffffffffffff1673ffffffffffffffffffffffffffffffffffffffff168152602001908152602001600020549050919050565b60006007600084815260200190815260200160002060000160008373ffffffffffffffffffffffffffffffffffffffff1673ffffffffffffffffffffffffffffffffffffffff16815260200190815260200160002060009054906101000a900460ff16905092915050565b606060018054610878906126a7565b80601f01602080910402602001604051908101604052809291908181526020018280546108a4906126a7565b80156108f15780601f106108c6576101008083540402835291602001916108f1565b820191906000526020600020905b8154815290600101906020018083116108d457829003601f168201915b5050505050905090565b6000801b81565b61091461090d610bc7565b8383610eea565b5050565b610923848484610553565b61093761092e610bc7565b85858585611059565b50505050565b60606109488261120a565b9050919050565b7f9f2df0fed2c77648de5860a4cc508cd0818c85b8b8a1ab4ceeef8d981c8956a661097981610cf1565b60006008600081548092919061098e9061273e565b91905055905061099e848261131d565b6109a8818461133b565b50505050565b7f9f2df0fed2c77648de5860a4cc508cd0818c85b8b8a1ab4ceeef8d981c8956a681565b6109db82610655565b6109e481610cf1565b6109ee8383610df7565b50505050565b6000600560008473ffffffffffffffffffffffffffffffffffffffff1673ffffffffffffffffffffffffffffffffffffffff16815260200190815260200160002060008373ffffffffffffffffffffffffffffffffffffffff1673ffffffffffffffffffffffffffffffffffffffff16815260200190815260200160002060009054906101000a900460ff16905092915050565b60007f7965db0b000000000000000000000000000000000000000000000000000000007bffffffffffffffffffffffffffffffffffffffffffffffffffffffff1916827bffffffffffffffffffffffffffffffffffffffffffffffffffffffff19161480610afb5750610afa82611397565b5b9050919050565b600080610b0e836113f8565b9050600073ffffffffffffffffffffffffffffffffffffffff168173ffffffffffffffffffffffffffffffffffffffff1603610b8157826040517f7e273289000000000000000000000000000000000000000000000000000000008152600401610b7891906122fc565b60405180910390fd5b80915050919050565b60006004600083815260200190815260200160002060009054906101000a900473ffffffffffffffffffffffffffffffffffffffff169050919050565b600033905090565b610bdc8383836001611435565b505050565b600080610bed846113f8565b9050600073ffffffffffffffffffffffffffffffffffffffff168173ffffffffffffffffffffffffffffffffffffffff1614158015610c595750600073ffffffffffffffffffffffffffffffffffffffff168573ffffffffffffffffffffffffffffffffffffffff1614155b15610cdc57610c887f8502233096d909befbda0999bb8ea2f3a6be3c138b9fbf003752a4c8bce86f6c846107fe565b80610c9c5750610c9b6000801b846107fe565b5b610cdb576040517f08c379a0000000000000000000000000000000000000000000000000000000008152600401610cd29061281e565b60405180910390fd5b5b610ce78585856115fa565b9150509392505050565b610d0281610cfd610bc7565b611814565b50565b6000610d1183836107fe565b610dec5760016007600085815260200190815260200160002060000160008473ffffffffffffffffffffffffffffffffffffffff1673ffffffffffffffffffffffffffffffffffffffff16815260200190815260200160002060006101000a81548160ff021916908315150217905550610d89610bc7565b73ffffffffffffffffffffffffffffffffffffffff168273ffffffffffffffffffffffffffffffffffffffff16847f2f8788117e7eff1d82e926ec794901d17c78024a50270940304540a733656f0d60405160405180910390a460019050610df1565b600090505b92915050565b6000610e0383836107fe565b15610edf5760006007600085815260200190815260200160002060000160008473ffffffffffffffffffffffffffffffffffffffff1673ffffffffffffffffffffffffffffffffffffffff16815260200190815260200160002060006101000a81548160ff021916908315150217905550610e7c610bc7565b73ffffffffffffffffffffffffffffffffffffffff168273ffffffffffffffffffffffffffffffffffffffff16847ff6391f5c32d9c69d2a47ea670b442974b53935d1edc7fd64eb21e047a839171b60405160405180910390a460019050610ee4565b600090505b92915050565b600073ffffffffffffffffffffffffffffffffffffffff168273ffffffffffffffffffffffffffffffffffffffff1603610f5b57816040517f5b08ba18000000000000000000000000000000000000000000000000000000008152600401610f529190612119565b60405180910390fd5b80600560008573ffffffffffffffffffffffffffffffffffffffff1673ffffffffffffffffffffffffffffffffffffffff16815260200190815260200160002060008473ffffffffffffffffffffffffffffffffffffffff1673ffffffffffffffffffffffffffffffffffffffff16815260200190815260200160002060006101000a81548160ff0219169083151502179055508173ffffffffffffffffffffffffffffffffffffffff168373ffffffffffffffffffffffffffffffffffffffff167f17307eab39ab6107e8899845ad3d59bd9653f200f220920489ca2b5937696c318360405161104c9190611fa8565b60405180910390a3505050565b60008373ffffffffffffffffffffffffffffffffffffffff163b1115611203578273ffffffffffffffffffffffffffffffffffffffff1663150b7a02868685856040518563ffffffff1660e01b81526004016110b89493929190612893565b6020604051808303816000875af19250505080156110f457506040513d601f19601f820116820180604052508101906110f191906128f4565b60015b611178573d8060008114611124576040519150601f19603f3d011682016040523d82523d6000602084013e611129565b606091505b50600081510361117057836040517f64a0ae920000000000000000000000000000000000000000000000000000000081526004016111679190612119565b60405180910390fd5b805160208201fd5b63150b7a0260e01b7bffffffffffffffffffffffffffffffffffffffffffffffffffffffff1916817bffffffffffffffffffffffffffffffffffffffffffffffffffffffff19161461120157836040517f64a0ae920000000000000000000000000000000000000000000000000000000081526004016111f89190612119565b60405180910390fd5b505b5050505050565b606061121582610b02565b506000600660008481526020019081526020016000208054611236906126a7565b80601f0160208091040260200160405190810160405280929190818152602001828054611262906126a7565b80156112af5780601f10611284576101008083540402835291602001916112af565b820191906000526020600020905b81548152906001019060200180831161129257829003601f168201915b5050505050905060006112c0611865565b905060008151036112d5578192505050611318565b60008251111561130a5780826040516020016112f292919061295d565b60405160208183030381529060405292505050611318565b6113138461187c565b925050505b919050565b6113378282604051806020016040528060008152506118e5565b5050565b8060066000848152602001908152602001600020908161135b9190612b2d565b507ff8e1a15aba9398e019f0b49df1a4fde98ee17ae345cb5f6b5e2c27f5033e8ce78260405161138b91906122fc565b60405180910390a15050565b6000634906490660e01b7bffffffffffffffffffffffffffffffffffffffffffffffffffffffff1916827bffffffffffffffffffffffffffffffffffffffffffffffffffffffff191614806113f157506113f082611909565b5b9050919050565b60006002600083815260200190815260200160002060009054906101000a900473ffffffffffffffffffffffffffffffffffffffff169050919050565b808061146e5750600073ffffffffffffffffffffffffffffffffffffffff168273ffffffffffffffffffffffffffffffffffffffff1614155b156115a257600061147e84610b02565b9050600073ffffffffffffffffffffffffffffffffffffffff168373ffffffffffffffffffffffffffffffffffffffff16141580156114e957508273ffffffffffffffffffffffffffffffffffffffff168173ffffffffffffffffffffffffffffffffffffffff1614155b80156114fc57506114fa81846109f4565b155b1561153e57826040517fa9fbf51f0000000000000000000000000000000000000000000000000000000081526004016115359190612119565b60405180910390fd5b81156115a057838573ffffffffffffffffffffffffffffffffffffffff168273ffffffffffffffffffffffffffffffffffffffff167f8c5be1e5ebec7d5bd14f71427d1e84f3dd0314c0f7b2291e5b200ac8c7c3b92560405160405180910390a45b505b836004600085815260200190815260200160002060006101000a81548173ffffffffffffffffffffffffffffffffffffffff021916908373ffffffffffffffffffffffffffffffffffffffff16021790555050505050565b600080611606846113f8565b9050600073ffffffffffffffffffffffffffffffffffffffff168373ffffffffffffffffffffffffffffffffffffffff1614611648576116478184866119eb565b5b600073ffffffffffffffffffffffffffffffffffffffff168173ffffffffffffffffffffffffffffffffffffffff16146116d95761168a600085600080611435565b6001600360008373ffffffffffffffffffffffffffffffffffffffff1673ffffffffffffffffffffffffffffffffffffffff168152602001908152602001600020600082825403925050819055505b600073ffffffffffffffffffffffffffffffffffffffff168573ffffffffffffffffffffffffffffffffffffffff161461175c576001600360008773ffffffffffffffffffffffffffffffffffffffff1673ffffffffffffffffffffffffffffffffffffffff168152602001908152602001600020600082825401925050819055505b846002600086815260200190815260200160002060006101000a81548173ffffffffffffffffffffffffffffffffffffffff021916908373ffffffffffffffffffffffffffffffffffffffff160217905550838573ffffffffffffffffffffffffffffffffffffffff168273ffffffffffffffffffffffffffffffffffffffff167fddf252ad1be2c89b69c2b068fc378daa952ba7f163c4a11628f55a4df523b3ef60405160405180910390a4809150509392505050565b61181e82826107fe565b6118615780826040517fe2517d3f000000000000000000000000000000000000000000000000000000008152600401611858929190612bff565b60405180910390fd5b5050565b606060405180602001604052806000815250905090565b606061188782610b02565b506000611892611865565b905060008151116118b257604051806020016040528060008152506118dd565b806118bc84611aaf565b6040516020016118cd92919061295d565b6040516020818303038152906040525b915050919050565b6118ef8383611b7d565b6119046118fa610bc7565b6000858585611059565b505050565b60007f80ac58cd000000000000000000000000000000000000000000000000000000007bffffffffffffffffffffffffffffffffffffffffffffffffffffffff1916827bffffffffffffffffffffffffffffffffffffffffffffffffffffffff191614806119d457507f5b5e139f000000000000000000000000000000000000000000000000000000007bffffffffffffffffffffffffffffffffffffffffffffffffffffffff1916827bffffffffffffffffffffffffffffffffffffffffffffffffffffffff1916145b806119e457506119e382611c76565b5b9050919050565b6119f6838383611ce0565b611aaa57600073ffffffffffffffffffffffffffffffffffffffff168373ffffffffffffffffffffffffffffffffffffffff1603611a6b57806040517f7e273289000000000000000000000000000000000000000000000000000000008152600401611a6291906122fc565b60405180910390fd5b81816040517f177e802f000000000000000000000000000000000000000000000000000000008152600401611aa1929190612c28565b60405180910390fd5b505050565b606060006001611abe84611da1565b01905060008167ffffffffffffffff811115611add57611adc61238d565b5b6040519080825280601f01601f191660200182016040528015611b0f5781602001600182028036833780820191505090505b509050600082602083010190505b600115611b72578080600190039150507f3031323334353637383961626364656600000000000000000000000000000000600a86061a8153600a8581611b6657611b65612c51565b5b04945060008503611b1d575b819350505050919050565b600073ffffffffffffffffffffffffffffffffffffffff168273ffffffffffffffffffffffffffffffffffffffff1603611bef5760006040517f64a0ae92000000000000000000000000000000000000000000000000000000008152600401611be69190612119565b60405180910390fd5b6000611bfd83836000610be1565b9050600073ffffffffffffffffffffffffffffffffffffffff168173ffffffffffffffffffffffffffffffffffffffff1614611c715760006040517f73c6ac6e000000000000000000000000000000000000000000000000000000008152600401611c689190612119565b60405180910390fd5b505050565b60007f01ffc9a7000000000000000000000000000000000000000000000000000000007bffffffffffffffffffffffffffffffffffffffffffffffffffffffff1916827bffffffffffffffffffffffffffffffffffffffffffffffffffffffff1916149050919050565b60008073ffffffffffffffffffffffffffffffffffffffff168373ffffffffffffffffffffffffffffffffffffffff1614158015611d9857508273ffffffffffffffffffffffffffffffffffffffff168473ffffffffffffffffffffffffffffffffffffffff161480611d595750611d5884846109f4565b5b80611d9757508273ffffffffffffffffffffffffffffffffffffffff16611d7f83610b8a565b73ffffffffffffffffffffffffffffffffffffffff16145b5b90509392505050565b600080600090507a184f03e93ff9f4daa797ed6e38ed64bf6a1f0100000000000000008310611dff577a184f03e93ff9f4daa797ed6e38ed64bf6a1f0100000000000000008381611df557611df4612c51565b5b0492506040810190505b6d04ee2d6d415b85acef81000000008310611e3c576d04ee2d6d415b85acef81000000008381611e3257611e31612c51565b5b0492506020810190505b662386f26fc100008310611e6b57662386f26fc100008381611e6157611e60612c51565b5b0492506010810190505b6305f5e1008310611e94576305f5e1008381611e8a57611e89612c51565b5b0492506008810190505b6127108310611eb9576127108381611eaf57611eae612c51565b5b0492506004810190505b60648310611edc5760648381611ed257611ed1612c51565b5b0492506002810190505b600a8310611eeb576001810190505b80915050919050565b6000604051905090565b600080fd5b600080fd5b60007fffffffff0000000000000000000000000000000000000000000000000000000082169050919050565b611f3d81611f08565b8114611f4857600080fd5b50565b600081359050611f5a81611f34565b92915050565b600060208284031215611f7657611f75611efe565b5b6000611f8484828501611f4b565b91505092915050565b60008115159050919050565b611fa281611f8d565b82525050565b6000602082019050611fbd6000830184611f99565b92915050565b600081519050919050565b600082825260208201905092915050565b60005b83811015611ffd578082015181840152602081019050611fe2565b60008484015250505050565b6000601f19601f8301169050919050565b600061202582611fc3565b61202f8185611fce565b935061203f818560208601611fdf565b61204881612009565b840191505092915050565b6000602082019050818103600083015261206d818461201a565b905092915050565b6000819050919050565b61208881612075565b811461209357600080fd5b50565b6000813590506120a58161207f565b92915050565b6000602082840312156120c1576120c0611efe565b5b60006120cf84828501612096565b91505092915050565b600073ffffffffffffffffffffffffffffffffffffffff82169050919050565b6000612103826120d8565b9050919050565b612113816120f8565b82525050565b600060208201905061212e600083018461210a565b92915050565b61213d816120f8565b811461214857600080fd5b50565b60008135905061215a81612134565b92915050565b6000806040838503121561217757612176611efe565b5b60006121858582860161214b565b925050602061219685828601612096565b9150509250929050565b6000819050919050565b6121b3816121a0565b82525050565b60006020820190506121ce60008301846121aa565b92915050565b6000806000606084860312156121ed576121ec611efe565b5b60006121fb8682870161214b565b935050602061220c8682870161214b565b925050604061221d86828701612096565b9150509250925092565b612230816121a0565b811461223b57600080fd5b50565b60008135905061224d81612227565b92915050565b60006020828403121561226957612268611efe565b5b60006122778482850161223e565b91505092915050565b6000806040838503121561229757612296611efe565b5b60006122a58582860161223e565b92505060206122b68582860161214b565b9150509250929050565b6000602082840312156122d6576122d5611efe565b5b60006122e48482850161214b565b91505092915050565b6122f681612075565b82525050565b600060208201905061231160008301846122ed565b92915050565b61232081611f8d565b811461232b57600080fd5b50565b60008135905061233d81612317565b92915050565b6000806040838503121561235a57612359611efe565b5b60006123688582860161214b565b92505060206123798582860161232e565b9150509250929050565b600080fd5b600080fd5b7f4e487b7100000000000000000000000000000000000000000000000000000000600052604160045260246000fd5b6123c582612009565b810181811067ffffffffffffffff821117156123e4576123e361238d565b5b80604052505050565b60006123f7611ef4565b905061240382826123bc565b919050565b600067ffffffffffffffff8211156124235761242261238d565b5b61242c82612009565b9050602081019050919050565b82818337600083830152505050565b600061245b61245684612408565b6123ed565b90508281526020810184848401111561247757612476612388565b5b612482848285612439565b509392505050565b600082601f83011261249f5761249e612383565b5b81356124af848260208601612448565b91505092915050565b600080600080608085870312156124d2576124d1611efe565b5b60006124e08782880161214b565b94505060206124f18782880161214b565b935050604061250287828801612096565b925050606085013567ffffffffffffffff81111561252357612522611f03565b5b61252f8782880161248a565b91505092959194509250565b600067ffffffffffffffff8211156125565761255561238d565b5b61255f82612009565b9050602081019050919050565b600061257f61257a8461253b565b6123ed565b90508281526020810184848401111561259b5761259a612388565b5b6125a6848285612439565b509392505050565b600082601f8301126125c3576125c2612383565b5b81356125d384826020860161256c565b91505092915050565b600080604083850312156125f3576125f2611efe565b5b60006126018582860161214b565b925050602083013567ffffffffffffffff81111561262257612621611f03565b5b61262e858286016125ae565b9150509250929050565b6000806040838503121561264f5761264e611efe565b5b600061265d8582860161214b565b925050602061266e8582860161214b565b9150509250929050565b7f4e487b7100000000000000000000000000000000000000000000000000000000600052602260045260246000fd5b600060028204905060018216806126bf57607f821691505b6020821081036126d2576126d1612678565b5b50919050565b60006060820190506126ed600083018661210a565b6126fa60208301856122ed565b612707604083018461210a565b949350505050565b7f4e487b7100000000000000000000000000000000000000000000000000000000600052601160045260246000fd5b600061274982612075565b91507fffffffffffffffffffffffffffffffffffffffffffffffffffffffffffffffff820361277b5761277a61270f565b5b600182019050919050565b7f41636164656d69634e46543a20536f756c626f756e64202d205369737761207460008201527f6964616b206469697a696e6b616e206d656d7472616e7366657220746f6b656e60208201527f20696e6900000000000000000000000000000000000000000000000000000000604082015250565b6000612808604483611fce565b915061281382612786565b606082019050919050565b60006020820190508181036000830152612837816127fb565b9050919050565b600081519050919050565b600082825260208201905092915050565b60006128658261283e565b61286f8185612849565b935061287f818560208601611fdf565b61288881612009565b840191505092915050565b60006080820190506128a8600083018761210a565b6128b5602083018661210a565b6128c260408301856122ed565b81810360608301526128d4818461285a565b905095945050505050565b6000815190506128ee81611f34565b92915050565b60006020828403121561290a57612909611efe565b5b6000612918848285016128df565b91505092915050565b600081905092915050565b600061293782611fc3565b6129418185612921565b9350612951818560208601611fdf565b80840191505092915050565b6000612969828561292c565b9150612975828461292c565b91508190509392505050565b60008190508160005260206000209050919050565b60006020601f8301049050919050565b600082821b905092915050565b6000600883026129e37fffffffffffffffffffffffffffffffffffffffffffffffffffffffffffffffff826129a6565b6129ed86836129a6565b95508019841693508086168417925050509392505050565b6000819050919050565b6000612a2a612a25612a2084612075565b612a05565b612075565b9050919050565b6000819050919050565b612a4483612a0f565b612a58612a5082612a31565b8484546129b3565b825550505050565b600090565b612a6d612a60565b612a78818484612a3b565b505050565b5b81811015612a9c57612a91600082612a65565b600181019050612a7e565b5050565b601f821115612ae157612ab281612981565b612abb84612996565b81016020851015612aca578190505b612ade612ad685612996565b830182612a7d565b50505b505050565b600082821c905092915050565b6000612b0460001984600802612ae6565b1980831691505092915050565b6000612b1d8383612af3565b9150826002028217905092915050565b612b3682611fc3565b67ffffffffffffffff811115612b4f57612b4e61238d565b5b612b5982546126a7565b612b64828285612aa0565b600060209050601f831160018114612b975760008415612b85578287015190505b612b8f8582612b11565b865550612bf7565b601f198416612ba586612981565b60005b82811015612bcd57848901518255600182019150602085019450602081019050612ba8565b86831015612bea5784890151612be6601f891682612af3565b8355505b6001600288020188555050505b505050505050565b6000604082019050612c14600083018561210a565b612c2160208301846121aa565b9392505050565b6000604082019050612c3d600083018561210a565b612c4a60208301846122ed565b9392505050565b7f4e487b7100000000000000000000000000000000000000000000000000000000600052601260045260246000fdfea2646970667358221220a0636801d52211342e1f85785540cce27014da11a406969dbeea64d37811fe5364736f6c63430008140033",
  "linkReferences": {},
  "deployedLinkReferences": {}
}